:1010CF00602A036505DC05DC05DC05DC05DC05DCD9
:1010DF0005DC05DC05DC05DC05DC05DC05DC05DCF9
:1010EF0005DC05DC05DC05DC05DC05DC05DC602A40
:1010FF00031105DC05DC05DC05DC05DC05DC05DCA6
:10110F0005DC05DC05DC05DC05DC05DC05DC05DCC8
:10111F0005DC05DC05DC05DC05DC05DC602A038F5E
:10112F0000000000000000000000000000000000B0
:10113F0000000000000000000000000000000000A0
:10114F0000000000000000000000602A033B0000C8
:10115F000000000000000000000000000000000080
:10116F000000000000000000000000000000000070
:08117F00000000000000000068
:1013F700900458EBF0A3EAF0A3E9F0A3ECF0A3ED17
:01140700F0F4
:10140800E4A3F090045DE0FFC3941540030214CBFD
:10141800900458E0FBA3E0FAA3E0F975F002EFA40A
:10142800F58285F083120457FFAEF0D39400EE6482
:1014380080948050030214C290045DE0901C6B936A
:1014480090045EF090045DE025E0243BF582E434EE
:1014580003F583E0FCA3E0FDC3EF9DFFEE9CFE9047
:10146800045EE0FD25E02465F582E43403F583EEAF
:10147800F0A3EFF0ED25E02411F582E43403F583C1
:10148800E0FEA3E0FFED25E02465F582E43403F5F2
:1014980083E0FCA3E0C39FFFEC9EFE90045BE0FCAE
:1014A800A3E0FD1203F590045EE025E0248FF582A9
:1014B800E43403F583EEF0A3EFF090045DE004F06C
:0314C80002140B00
:0114CB0022FE
:100BEC00E4900479F0900479E0FFC394154003027B
:100BFC000D98EF25E0248FF582E43403F583E0FEB5
:100C0C00A3E0FFD39400EE648094805003020CC7E1
:100C1C00900479E025E02465F582E43403F583E063
:100C2C00FCA3E0C39FFFEC9EFE900479E0FD25E061
:100C3C002411F582E43403F583E0FAA3E0C39FEEBC
:100C4C006480F8EA648098900479E0FF502425E0F1
:100C5C00248FF582E43403F583E0FAA3E0FBEF255F
:100C6C00E02411F582E43403F583EA8BF012042BB3
:100C7C00803125E02465F582E43403F583E0FAA3A2
:100C8C00E0FBEF25E02411F582E43403F583EAF070
:100C9C00A3EBF0ED25E0248FF582E43403F583E437
:100CAC00F0A3F0900479E0FF25E02411F582E43400
:100CBC0003F583E0FCA3E0FD12176C900479E0FFD0
:100CCC0025E0248FF582E43403F583E0FCA3E0FDFA
:100CDC00C3EC648094804003020D8FEF25E0246503
:100CEC00F582E43403F583E0FEA3E0C39DFFEE9CA4
:100CFC00FE900479E0FD25E02411F582E43403F53F
:100D0C0083E0FAA3E0D39FEE6480F8EA64809890C5
:100D1C000479E0FF402425E0248FF582E43403F5C8
:100D2C0083E0FAA3E0FBEF25E02411F582E4340321
:100D3C00F583EA8BF012042B803125E02465F582D3
:100D4C00E43403F583E0FAA3E0FBEF25E02411F58E
:100D5C0082E43403F583EAF0A3EBF0ED25E0248F75
:100D6C00F582E43403F583E4F0A3F0900479E0FF1A
:100D7C0025E02411F582E43403F583E0FCA3E0FDC7
:0F0D8C0012176C900479E004F0020BF102130AC5
:1014CC0090045FEBF0A3EAF0A3E9F0A3ECF0A3ED3A
:0114DC00F01F
:1014DD00E4A3F0A3F0900464F0A3F0900462E0FEA6
:1014ED00A3E0FFA3E0FCA3E0FDC39FEC9E4003023D
:1014FD00158DED2415FFE43CFEEF25E0FFEE33FEE8
:10150D0090045FE0FBA3E0FAA3E0F98F828E8312D3
:10151D000457FFAEF07C007D321203F5AC06AD072B
:10152D00900465E025E0FF900464E033FE90045FD5
:10153D00A3A3E02FF9EA3EFA1213F7900465E02415
:10154D0015FF900464E03400FEEF25E0FFEE33FE5E
:10155D0090045FE0FBA3E0FAA3E0F98F828E831283
:10156D000457FFAEF07C007D321203F5121C239060
:10157D000465E02416F0900464E03400F00214E8F1
:01158D00223B
:10161A0005DC07D007D005DC07D007D005DC07D0EA
:10162A0007D005DC03E803E805DC03E803E805DC8A
:10163A0003E803E805DC03E803E803E803E803E852
:10164A0003E803E803E803E803E803E803E803E838
:10165A0003E803E803E803E803E803E803E803E828
:10166A0003E803E803E803E808FC08FC08FC08FCB4
:10167A0008FC08FC08FC08FC08FC08FC08FC08FC40
:10168A0008FC08FC08FC08FC08FC08FC08FC08FC30
:04169A0008FC03E85D
:101B3000E4F594F593F592F591F596F595F5B2F5F2
:101B4000B1F5B4F5B3F5CAF5C9F5CCF5CBF5E2F5C9
:0F1B5000E1F580F590F5A075B003F5C0F5C8225A
:061DEC00900480EFF022DC
:10006600900302E0602C900303E0B4591DA3E0B4B2
:100076005308A3E0FF120F368010900304E0B45437
:10008600097B017A037905120D9BE4900302F07F48
:0500960001227F0022A1
:101B8C009001FDE060239001FEE0B444031209B221
:101B9C009001FEE0FF600AC394415005121DEC80D9
:0C1BAC00EFE49001FDF07F01227F002299
:101C020090047B7409F0121B30D2C0121C55121DB5
:101C12002F121C3D12002E121CB6121CDAD2CD80DD
:011C2200FEC3
:04118700410481009E
:101D0F00D2AFD2A9438901758CFA758A24D28C225D
:101C3D00538E7F5389F0438901E4F58A758C70C208
:081C4D008DD28CD2A9D2AF2286
:101D1F00D2AFD2AB438910758DFA758B24D28E2238
:10002E00538EBF53890FE4F58B758D70C28FD28EB0
:05003E00D2AFD2AB229D
:101C8000D2AF43AF04438E0475D79A75D6A9438E5D
:021C9000102220
:101C9200D2AF43AF04538EFB75D7CD75D6F8438EC2
:021CA20010220E
:101CA400D2AF43AF2043D10275D59A75D4A943D19D
:021CB400082204
:101CB600D2AF43AF2053D1FD75D5CD75D4F843D1FE
:021CC6000822F2
:101CC800D2AF43AF4043D12075D39A75D2A943D13F
:021CD800802268
:101CDA00D2AF43AF4053D1DFE4F5D375D24C43D1F1
:021CEA00802256
:03000B00021910C7
:10191000C0E0C0F0C083C08263A201C083C082C0A7
:10192000D075D000C000C001C002C003C004C00513
:10193000C006C0071217C3B2CDD007D006D005D05D
:1019400004D003D002D001D000D0D0D082D08363A5
:0B195000A201D082D083D0F0D0E032A2
:03001B0002195B6C
:10195B00C0E0C0F0C083C08263A201C083C082C05C
:10196B00D075D000C000C001C002C003C004C005C8
:10197B00C006C007121819D007D006D005D004D066
:10198B0003D002D001D000D0D0D082D08363A2018B
:09199B00D082D083D0F0D0E032FC
:0300630002001E7A
:01001E0032AF
:03009B000219A4A3
:1019A400C0E0C0F0C083C08263A201C083C082C013
:1019B400D075D000C000C001C002C003C004C0057F
:1019C400C006C00712169ED007D006D005D004D09A
:1019D40003D002D001D000D0D0D082D08363A20142
:0919E400D082D083D0F0D0E032B3
:0300A30002170938
:10170900C0E0C0F0C083C08263A201C083C082C0B0
:10171900D075D000C000C001C002C003C004C0051C
:10172900C006C007900481E070047F0180027F0039
:10173900900481EFF075D30075D24CEF6003120B62
:10174900ECD007D006D005D004D003D002D001D008
:1017590000D0D0D082D08363A201D082D083D0F0D0
:03176900D0E0329B
:10118B004102FE004102FF004101FD0041030E0040
:08119B004103020041030D00B5
:101205009002FFE0701BA3E0FF90030DF09002FF3A
:10121500E0FE04F074FE2EF582E43401F583EFF070
:101225002290030EE0FF701B900300E0FE90030D7B
:10123500F0A3E0FD04F074032DF582E43403F58397
:10124500EEF02290030DE064597066EF30E703027B
:101255001309A3E0FFE430E618900300E0640A6098
:1012650003E48026EF90030EF0E4F090030204F00F
:1012750022900300E0FBB40D1690030EE0FF24035B
:10128500F582E43403F583E4F0EF90030EF0229049
:10129500030EE0FF7E0074032FF582EE3403F58321
:1012A500EBF090030EE004F0E0D394094056E4F02F
:1012B500227E00EE20E74D30E61B900300E0640A35
:1012C5006006E49002FFF0229002FFE0F0E4F09067
:1012D50001FD04F022900300E0FDB40D069002FF2D
:1012E500E0F0229002FFE0FF7E0074FE2FF582EE13
:1012F5003401F583EDF09002FFE004F0E0D394FFB4
:051305004002E4F022AB
:1009B2009003F2E4F0A304F0E490041EF0A3F0909C
:1009C20003F2E0FEA3E024FEF58274013EF583E02B
:1009D200B420109003F3E004F070E49003F2E0041A
:1009E200F080DC9003F2E0FEA3E024FEF5827401C5
:1009F2003EF583E0FFC3943A5040EF942F403B9082
:100A0200041EE0FEA3E0FF7C007D0A12038E900329
:100A1200F2E475F001120441FC74FE25F0F58274D3
:100A2200013CF583E07C002FFFEC3ECF24D0CF3495
:100A3200FF90041EF0A3EFF080A9E49001FDF09076
:100A4200041E74FFF5F012044145F07003020BEB33
:100A52009001FDE06003020BEB900420F0A3F0FB99
:100A6200FDEDFF3395E0FEEF25E0FFEE33FE74F47B
:100A72002FF58274033EF583E4F0A3F00DEDB41577
:100A8200E0C3EB648094954003020B519003F2E4BF
:100A920075F001120441FE74FE25F0F58274013EE8
:100AA200F583E0B420E69003F2E0FEA3E024FEF535
:100AB2008274013EF583E0FFC3943A506CEF942FA9
:100AC2004067EBFF3395E0FEEF25E0FFEE33FE7467
:100AD200F42FF58274033EF583E0FEA3E0FF7C0071
:100AE2007D0A12038E9003F2E475F001120441FCB8
:100AF20074FE25F0F58274013CF583E07C002FFF43
:100B0200EC3ECF24D0FDEF34FFFCEBFF3395E0FE4B
:100B1200EF25E0FFEE33FE74F42FF58274033EF509
:100B220083ECF0A3EDF0020AA89003F2E0FEA3E04A
:100B320024FDF58274013EF583E0FFC3943A40033D
:100B4200020A83EF942F5003020A830B020A839056
:100B520003F2E0FEA3E024FEF58274013EF583E099
:100B6200B420109003F3E004F070E49003F2E00488
:100B7200F080DC9003F2E0FEA3E024FEF582740133
:100B82003EF583E0FFC3943A5040EF942F403B90F0
:100B92000420E0FEA3E0FF7C007D0A12038E900396
:100BA200F2E475F001120441FC74FE25F0F5827442
:100BB200013CF583E07C002FFFEC3ECF24D0CF3404
:100BC200FF900420F0A3EFF080A9900420E0FEA3A0
:100BD200E0FF7C007D321203F5AC06AD077B017AA3
:090BE2000379F41213F7020A4131
:010BEB0022E7
:101C550075B003759850438E01438E0475D7D075C2
:061C6500D6FF438E1022A1
:101D2F00759A50438E0475D7D075D6FF438E102207
:030023000219EDD2
:1019ED00C0E0C083C08263A201C083C082C0D07535
:1019FD00D008309811C2989002FE7401F090030047
:101A0D00E599F0121205309907C29990030FE4F091
:101A1D00D0D0D082D08363A201D082D083D0E032E7
:03004300021A2D71
:101A2D00C0E0C083C08263A201C083C082E59A304A
:101A3D00E009539AFE900301E59BF0E59A30E10829
:101A4D00539AFD900310E4F0D082D08363A201D0AD
:061A5D0082D083D0E032CC
:101D3F0090030FE070FAEF90030F7401F0F5992202
:061DF200900482EFF022D4
:101A9700900470EBF0A3EAF0A3E9F0900470E0FB88
:101AA700A3E0FAA3E0F91203636017900470A3E4BC
:101AB70075F001120441A9F0FA120363FF12000343
:031AC70080D922A1
:101ACA00900473EBF0A3EAF0A3E9F0900473E0FB4F
:101ADA00A3E0FAA3E0F91203636017900473A3E486
:101AEA0075F001120441A9F0FA120363FF121DA94D
:031AFA0080D9226E
:080003008F993099FDC299228A
:0E1DA900900310E060FA8F9BE4900310F0228C
:0E1D4F0000007FD37E1E7D0BDDFEDEFCDFFA82
:011D5D002263
:0E1D5E0000007F557E0C7D9BDDFEDEFCDFFA73
:011D6C002254
:0E1D6D0000007F2B7E067DCBDDFEDEFCDFFA64
:011D7B002245
:0E1D7C0000007F1A7E377DABDDFEDEFCDFFA55
:011D8A002236
:0C000E007F0A7E1F7D93DDFEDEFCDFFA22
:01001A0022C3
:0E1D8B0000007F0D7E9C7D53DDFEDEFCDFFA46
:011D99002227
:0E1D9A0000007F097E687D8BDDFEDEFCDFFA37
:011DA8002218
:101C2300AE071FEED39400401000007E057D347C88
:091C3300C3DCFEDDFCDEFA80E7F3
:011C3C002285
:101C6B0000010203040506071408090A0B0C0D0EEC
:051C7B000F131211100F
:1011A3005803BFF5F5F5F5F5F5F5F5F5F5F5F5F5B1
:1011B300F5F5F5F5F5F5F5F5C6C6A65803D73333BA
:1011C30033333333333333333333333333333333EC
:1011D3003333336666004103EF004103F0004103FC
:1011E300F1004203B900004203BB00004203BD000B
:0111F30000FB
:1017C3009003EFE0FFB4080EE4F5809003D4E0F556
:1017D3008C9003EC8029EF70057580018006E5800D
:1017E30025E0F5809003EFE0FF24BFF582E43403A6
:1017F300F583E0F58C74D72FF582E43403F583E0A9
:10180300F58A9003EFE02401FFE433FE7C007D09B9
:061813001203A0EDF0221B
:101819009003F0E0FFB4080EE4F5A09003D5E0F5DD
:101829008D9003ED8029EF700575A0018006E5A074
:1018390025E0F5A09003F0E0FF24C7F582E4340326
:10184900F583E0F58D74DF2FF582E43403F583E049
:10185900F58B9003F0E02401FFE433FE7C007D0961
:061869001203A0EDF022C5
:10169E009003F1E0FFB4050E53C0839003D6E0F53E
:1016AE00D49003EE803E9003F0E0700AE5C05483C0
:1016BE004404F5C080137404A807088002C333D80D
:1016CE00FCFFE5C054834FF5C09003F1E0FF24CF3B
:1016DE00F582E43403F583E0F5D474E72FF582E464
:1016EE003403F583E0F5D59003F1E02401FFE433F4
:0B16FE00FE7C007D061203A0EDF02230
:10176C0090047AEFF0E41202A97BFA7AED79EB7827
:10177C003F12019EA804A905AA06AB07E4FFFE7D53
:10178C00807C471200A91202E2AC06AD0790047AE5
:10179C00E0901C6B9390047AF0ECFFE0FB24BFF517
:1017AC0082E43403F583EFF0EDFF74D72BF582E47C
:0717BC003403F583EFF02276
:10130A009003B97470F0A3E4F0FD74BF2DF582E484
:10131A003403F583E0FE74D72DF582E43403F583B4
:10132A00E0FBEBFFC3E49FFFE49EFE9003BAE02FCD
:10133A00F09003B9E03EF00DEDB408CE9003B9E0A9
:10134A00FCA3E0FDEC9003D4F09003ECEDF09003E5
:10135A00BB7470F0A3E4F07D0874BF2DF582E43409
:10136A0003F583E0FE74D72DF582E43403F583E0B8
:10137A00FBEBFFC3E49FFFE49EFE9003BCE02FF06B
:10138A009003BBE03EF00DEDB410CE9003BBE0FC41
:10139A00A3E0FDEC9003D5F09003EDEDF09003BDD2
:1013AA007470F0A3E4F07D1074BF2DF582E4340369
:1013BA00F583E0FE74D72DF582E43403F583E0FB70
:1013CA00EBFFC3E49FFFE49EFE9003BEE02FF09084
:1013DA0003BDE03EF00DEDB415CE9003BDE0FCA3D5
:0C13EA00E0FDEC9003D6F09003EEEDF077
:0113F60022D4
:10067400CED2CFD6D4DAB5C4C9F9D2F4CAC7D5E23A
:10068400D1F9B5C400C9F9D2F4D2D1BBD6B8B4C437
:10069400ACC8CFC9E8D6C300D3EFCBD9D2D1B5F714
:1006A400B5BD00BCB600D3EFB5F7D2D1B5F7B5BD33
:1006B40000D2F4C1BFD2D1B5F7B5BD00FD0001022F
:1006C400FD000103FD000104FD000121FD0001887E
:1006D4005B73305D00005B73315D00005B73325D02
:1006E40000005B73335D00005B73345D00005B737B
:1006F400355D00005B73365D00005B73375D0000A1
:100704005B73385D00005B73395D00005B733130EF
:100714005D005B74305D00005B74315D00005B74F0
:10072400325D00005B74335D00005B74345D000077
:100734005B74355D00005B74365D00005B74375D8F
:1007440000005B74385D00005B74395D00005B740D
:1007540031305D005B76305D00005B76315D00001A
:100764005B76325D00005B76335D00005B76345D62
:1007740000005B76355D00005B76365D00005B76DD
:10078400375D00005B76385D00005B76395D000004
:100794005B7631305D005B6D335D00005B6D353140
:1007A4005D005B6D35325D005B6D35335D005B6D07
:1007B40035345D005B6D35355D00010101010100DB
:1007C4000000000000000000000000000000000025
:1007D4000000000000000000000000000000000015
:1007E4000000000000000000000000000000000005
:1007F40000000000000000000000000000000000F5
:1008040000000000000000000000000000000000E4
:1008140000000000000000000000000000000000D4
:1008240000000000000000000000000000000000C4
:1008340000000000000000000000000000000000B4
:1008440000000000000000000000000000000000A4
:100854000000000000000000000000000000000094
:100864000000000000000000000000000000000084
:100874000000000000000000000000000000000074
:100884000000000000000000000000000000000064
:100894000000000000000000000000000000000054
:1008A4000000000000000000000000000000000044
:1008B4000000000000000000000000000000000034
:1008C4000000000000000000000000000000000024
:1008D4000000000000000000000000000000000014
:1008E4000000000000000000000000000000000004
:1008F40000000000000000000000000000000000F4
:1009040000000000000000000000000000000000E3
:1009140000000000000000000000000000000000D3
:1009240000000000000000000000000000000000C3
:1009340000000000000000000000000000000000B3
:1009440000000000000000000000000000000000A3
:100954000000000000000000000000000000000093
:100964000000000000000000000000000000000083
:100974000000000000000000000000000000000073
:100984000000000000000000000000000000000063
:100994000000000000000000000000000000000053
:0E09A400000000000000000000000000000045
:1011F40041046D0541046E0541046F0841046C010E
:091A63001206577B017A00790399
:0B1A6C00900476EBF0A3EAF0A3E9F091
:101A7700E4FFFE900476E0FBA3E475F00112044155
:0F1A8700A9F0FA12036360070FBF00010E80E49D
:011A9600222D
:10186F00900466EBF0A3EAF0A3E9F0900469E0FBC3
:10187F00A3E0FAA3E0F91203636028900469A3E4DC
:10188F0075F001120441A9F0FA120363FF90046688
:10189F00E0FBA3E475F001120441A9F0FAEF120383
:1018AF007C80C8900466E0FBA3E0FAA3E0F9E402B1
:0218BF00037CA8
:0B0D9B00900000EBF0A3EAF0A3E9F0E9
:100DA60078037C007D017BFF7A0779BE7E017FF4A4
:100DB6001205699001FBE4F0A37405F090046DE060
:100DC60075F006A424D4F9740635F0FA7BFFC00149
:100DD60074032405F9E43400A801FC7D01D0011256
:100DE6001A639001FBEEF0A3EFF090046EE075F04D
:100DF60006A42416F9740735F0FA7BFFC0019001AA
:100E0600FBE0FEA3E02403F974003EA801FC7D018B
:100E1600D001121A639001FBEEF0A3EFF090046F7D
:100E2600E075F006A42458F9740735F0FA7BFFC084
:100E3600019001FBE0FEA3E02403F974003EA80143
:100E4600FC7D01D001121A639001FBEEF0A3EFF0D6
:100E560090046CE075F006A4249AF9740735F0FA4C
:100E66007BFFC0019001FBE0FEA3E02403F97400C0
:100E76003EA801FC7D01D001121A639001FBEEF041
:100E8600A3EFF0900000E0FBA3E0FAA3E0F9121A4A
:100E96006C9001F7EEF0A3EFF09001FCE02FFF90CD
:100EA60001FBE03ECF24FDCF34FF9001F7F0A3EF26
:100EB600F090000374FDF09001F7E0FCA3E0FDEC78
:100EC600900004F0A3EDF0A37401F0A3F09001FBF1
:100ED600E0FEA3E02403F974003EA801FC7D019026
:100EE6000000E0FBA3E0FAA3E0F9120657E4900144
:100EF600F9F0A3F09001F8E02403FF9001F7E03445
:100F060000FE9001F9E0FCA3E0FDC39FEC9E501F9C
:100F160074032DF58274003CF583E0FF1200039004
:0F0F260001FAE004F070069001F9E004F080C5D4
:010F35002299
:050F3600900422EFF021
:100F3B0014B408004003020FCF900F5275F003A4B6
:100F4B00C58325F0C58373020F6A020F6F020F74FE
:100F5B00020F79020F7E020F86020F9B020FB690D3
:100F6B00046D801290046D801590046E80089004BF
:100F7B006E800B90046FE02401800690046FE024D8
:100F8B000AFFE433FE7C007D0B1203A0EDF08034EE
:100F9B0090046CE02401FFE433FE7C007D06120319
:100FAB00A0EDF07BFF7A067974801690046D7405C2
:100FBB00F0A3F0A3F090046C7401F07BFF7A067938
:100FCB0089120D9B900422E0FF64016005EF64021F
:100FDB00702A90046DE0FFB40A0A9004377431F064
:100FEB00A3148006EF2430900437F0E4A3F07823A9
:100FFB007C047D017BFF7A06799C8071900422E052
:10100B00FF64036005EF6404702A90046EE0FFB484
:10101B000A0A9004377431F0A3148006EF24309041
:10102B000437F0E4A3F078237C047D017BFF7A0680
:10103B0079AA8039900422E0FF64056008EF64060A
:10104B0060030210CE90046FE0FFB40A0A900437DD
:10105B007431F0A3148006EF2430900437F0E4A32E
:10106B00F078237C047D017BFF7A0679B512065755
:10107B007B017A047923121A6C90043AEEF0A3EFF9
:10108B00F02423F974043EA801FC7D017B017A0452
:10109B0079371206577B017A047923121A6C900464
:1010AB003AEEF0A3EFF02423F974043EA801FC7D83
:1010BB00017BFF7A0679A71206577B017A04792305
:0310CB00120D9B68
:0110CE0022FF
:01001F0022BE
:03002B00020020B0
:0100200032AD
:061DB700EE25E0FED2B5AE
:071DBD000000007F0ADFFEB9
:011DC40022FC
:101CFE00D2B4D2B5121DBDC2B4121DBDC2B5021DE5
:011D0E00BD17
:0C1DE000C2B4D2B5121DBDD2B4021DBDAC
:0E1DC500A20092B4D2B5121DBDC2B5021DBD62
:0D1DD300D2B5121DBDA2B4C2B5121DBD22B5
:071BB800AF04121BBFAF03D5
:021BBF00AE076F
:101BC100E4FDEEC4131313540124FF92B4121DB7A4
:0D1BD100C2B5121DBD0DEDB408E8021DD314
:10004600E4FED2B4FD121DB7A2B4E4334EFEC2B52F
:0A005600121DBD0DEDB408EDAF065C
:01006000227D
:101CEC00AE07AC05121CFEAF06121BBF121BB802CE
:021CFC001DE0E9
:041BDE00AC07AB05A0
:101BE200121CFE121BB8121CFEEC4401FF121BBF9A
:0F1BF200120046AE07D200121DC5121DE0AF064D
:011C010022C0
:101B5F00E4FB7D6B7FD0121CEC7B077D197FD012CD
:101B6F001CEC7B067D1A7FD0121CEC7B187D1B7F33
:0D1B7F00D0121CEC7B017D1C7FD0021CEC01
:061AFD0090047EEFF0FDF5
:101B03007FD0121BDE90047FEFF090047EE004FD93
:101B13007FD0121BDEAD0790047FE0FF3395E0EF2B
:0C1B2300FEED3395E0FCE42DFFEE3CFEEF
:011B2F002293
:1018C1007F3B121AFD90044EEEF0A3EFF07F3D1224
:1018D1001AFD900450EEF0A3EFF07F3F121AFD9035
:1018E1000452EEF0A3EFF07F43121AFD900454EE80
:1018F100F0A3EFF07F45121AFD900456EEF0A3EF2E
:0F190100F07F47121AFD90044AEEF0A3EFF02298
:0100210022BC
:1000A60002034EE86480F8E933E83360110460F037
:1000B600ED33EC337009E8FCE9FDEAFEEBFF2204C0
:1000C60060DED3EB9FEA9EE99DE8C2E78CF0C2F7BB
:1000D60095F0400CE8CCF8E9CDF9EACEFAEBCFFB87
:1000E60012031985D0F05804700320D5B3E80470C4
:1000F600075002B2D502035892D5EC0460F7E4CC5F
:10010600C0E0C398F8603B94186008400DD0E0FB4F
:10011600020330E4FBFAC9FC8028E830E406E4C9AF
:10012600FBE4CAFCE830E305E4C9CACBFCE85407A3
:100136006010F8C3E913F9EA13FAEB13FBEC13FCAE
:10014600D8F130F52FC3E49CFCEF9BFFEE9AFEED51
:1001560099FDD0E0FBEF4E4D4C701222DB030203FB
:1001660055EC2CFCEF33FFEE33FEED33FDED30E7BF
:10017600EB020330EF2BFFEE3AFEED39FDD0E0FB4C
:1001860050130BBB0003020358ED13FDEE13FEEFF5
:0801960013FFEC13FC0203301F
:10019E00EC4D6011E8497017ED33EC3304600DE45B
:1001AE00FCFFFEFD22E933E8330470F802034E1221
:1001BE00031958046009E4CC248150062850090222
:1001CE000358284003020355C0E0EB4A7044B9803F
:1001DE0006D0E0FB020344EF4E701CBD8008EBFF1F
:1001EE00EAFEE9FD80EBE98DF0A4FEE5F002028760
:1001FE00E9CDF9EAFEEBFFEF89F0A4FCE5F0CE893C
:10020E00F0A42EFFE435F0CD89F0A42DFEE435F0F8
:10021E008067EF4E7005BD80D780C3EF8BF0A4AC26
:10022E00F0EE8BF0A42CFCE435F0F8EF8AF0A42C61
:10023E00E5F038FCE433CB8DF0A42CFCE5F03BF874
:10024E00EE8AF0A42CFCE5F038F8E433CF89F0A464
:10025E002CFCE5F038CF3400CE89F0A42FFFE5F06A
:10026E003EFEE433C98DF0A42EFEE5F039CD8AF0C2
:10027E00A42FFFE5F03EFEE43DFD33D0E0FB50073A
:10028E000BBB000F020358EC2CFCEF33FFEE33FEDA
:06029E00ED33FD02033008
:1002A40075F020800E75F010800575F0087D007ED5
:1002B400007F003392D530D50312048FEC33401005
:1002C400EF33FFEE33FEED33FDEC33FCD5F0ED22DE
:0E02D400E5F0247EA2D513CC92E7CDCEFF221A
:1002E200EDD2E7CD33EC3392D524814006E4FFFE14
:1002F200FDFC22FCE4CFCECDCC24E0501174FF8073
:10030200EDC3CC13CCCD13CDCE13CECF13CF04700F
:07031200F030D5DE02048F7C
:10031900E9D2E7C933E833F892D5EDD2E7CD33EC2A
:0703290033FC5002B2D522A3
:10033000EC30E7100FBF000C0EBE00080DBD00042E
:100340000BEB6014A2D5EB13FCED92E7FD2274FFDA
:10035000FCFDFEFF22E480F8A2D574FF13FC7D8033
:03036000E480EF47
:0300000002158E58
:0C158E00787FE4F6D8FD7581200215D5A9
:10036300BB010689828A83E0225002E722BBFE0298
:09037300E32289828A83E49322CB
:10037C00BB010689828A83F0225002F722BBFE0160
:02038C00F3225A
:10038E00EF8DF0A4A8F0CF8CF0A428CE8DF0A42E83
:02039E00FE223D
:1003A000BC000BBE0029EF8DF084FFADF022E4CC41
:1003B000F875F008EF2FFFEE33FEEC33FCEE9DEC0A
:1003C000984005FCEE9DFE0FD5F0E9E4CEFD22ED50
:1003D000F8F5F0EE8420D21CFEADF075F008EF2F9A
:1003E000FFED33FD4007985006D5F0F222C398FD8B
:0503F0000FD5F0EA2228
:1003F500C2D5EC30E709B2D5E4C39DFDE49CFCEE23
:1004050030E715B2D5E4C39FFFE49EFE1203A0C3F7
:10041500E49DFDE49CFC80031203A030D507C3E4F2
:060425009FFFE49EFE2291
:10042B00C5F0F8A3E028F0C5F0F8E582158270025C
:06043B001583E038F022F9
:10044100A3F8E0C5F025F0F0E5821582700215836E
:06045100E0C838F0E822CB
:10045700BB0110E58229F582E5833AF583E0F5F0E3
:10046700A3E0225009E92582F886F008E622BBFEC0
:100477000AE92582F8E2F5F008E222E5832AF58306
:08048700E993F5F0A3E99322CB
:0E048F00C3E49FFFE49EFEE49DFDE49CFC227E
:10049D00E709F608DFFA8046E709F208DFFA803E41
:1004AD0088828C83E709F0A3DFFA8032E309F6082E
:1004BD00DFFA8076E309F208DFFA806E88828C839A
:1004CD00E309F0A3DFFA806289828A83E0A3F6084C
:1004DD00DFFA805689828A83E0A3F208DFFA804A28
:1004ED0080D280FA80C680D4806580F28031801001
:1004FD0080A680EA809A80A880DA80E280CA803166
:10050D0089828A8363A20188828C8363A201E4932A
:10051D00A363A201F0A363A201DFF3DEF1800B89D7
:10052D00828A83E493A3F608DFF9ECFAA9F0EDFBD8
:10053D002289828A8363A20188828C8363A201E06F
:10054D00A363A201F0A363A201DFF4DEF280DB89D5
:10055D00828A83E493A3F208DFF980CE88F0EF60FE
:10056D00010E4E60C588F0ED2402B4040050BBF5B9
:10057D0082EB2402B4040050B1232345822390045E
:02058D00ED730C
:10058F00E709F60870FA8046E709F20870FA803E2C
:10059F0088828C83E709F0A370FA807CE309F60860
:1005AF0070FA8074E309F20870FA806C88828C8389
:1005BF00E309F0A370FA806089828A83E0A3F608CA
:1005CF0070FA805489828A83E0A3F20870FA804817
:1005DF0080D280FA80C680D4806180F2802F801014
:1005EF0080A680EA809A80A880DA80E280CA802F75
:1005FF0089828A8363A20188828C8363A201E49338
:10060F00A363A201F0A363A20170F3800B89828A16
:10061F0083E493A3F60870F9ECFAA9F0EDFB2289B5
:10062F00828A8363A20188828C8363A201E0A36321
:10063F00A201F0A363A20170F480DD89828A83E4B2
:10064F0093A3F20870F980D088F0ED2402B404006F
:10065F0050C6F582EB2402B4040050BC232345821C
:05066F00239005DF737C
:10159A00021C02E493A3F8E493A34003F68001F249
:1015AA0008DFF48029E493A3F85407240CC8C33352
:1015BA00C4540F4420C8834004F456800146F6DF21
:1015CA00E4800B01020408102040809010CFE47ED2
:1015DA00019360BCA3FF543F30E509541FFEE49316
:1015EA00A360010ECF54C025E060A840B8E493A3DD
:1015FA00FAE493A3F8E493A3C8C582C8CAC583CA08
:10160A00F0A3C8C582C8CAC583CADFE9DEE780BEBF
:0112040000E9
:00000001FF
