:1010CF00602A038505DC05DC05DC05DC05DC05DCB9
:1010DF0005DC05DC05DC05DC05DC05DC05DC05DCF9
:1010EF0005DC05DC05DC05DC05DC05DC05DC602A40
:1010FF00033105DC05DC05DC05DC05DC05DC05DC86
:10110F0005DC05DC05DC05DC05DC05DC05DC05DCC8
:10111F0005DC05DC05DC05DC05DC05DC602A03AF3E
:10112F0000000000000000000000000000000000B0
:10113F0000000000000000000000000000000000A0
:10114F0000000000000000000000602A035B0000A8
:10115F000000000000000000000000000000000080
:10116F000000000000000000000000000000000070
:08117F00000000000000000068
:1013F700900033EBF0A3EAF0A3E9F0A3ECF0A3ED40
:01140700F0F4
:10140800E4A3F0900038E0FFC3941540030214CB26
:10141800900033E0FBA3E0FAA3E0F975F002EFA433
:10142800F58285F083120457FFAEF0D39400EE6482
:1014380080948050030214C2900038E0901C7E9380
:10144800900039F0900038E025E0245BF582E43420
:1014580003F583E0FCA3E0FDC3EF9DFFEE9CFE9047
:101468000039E0FD25E02485F582E43403F583EEB8
:10147800F0A3EFF0ED25E02431F582E43403F583A1
:10148800E0FEA3E0FFED25E02485F582E43403F5D2
:1014980083E0FCA3E0C39FFFEC9EFE900036E0FCD7
:1014A800A3E0FD1203F5900039E025E024AFF582B2
:1014B800E43403F583EEF0A3EFF0900038E004F095
:0314C80002140B00
:0114CB0022FE
:100BEC00E4900000F0900000E0FFC3941540030275
:100BFC000D98EF25E024AFF582E43403F583E0FE95
:100C0C00A3E0FFD39400EE648094805003020CC7E1
:100C1C00900000E025E02485F582E43403F583E0C0
:100C2C00FCA3E0C39FFFEC9EFE900000E0FD25E0DE
:100C3C002431F582E43403F583E0FAA3E0C39FEE9C
:100C4C006480F8EA648098900000E0FF502425E06E
:100C5C0024AFF582E43403F583E0FAA3E0FBEF253F
:100C6C00E02431F582E43403F583EA8BF012042B93
:100C7C00803125E02485F582E43403F583E0FAA382
:100C8C00E0FBEF25E02431F582E43403F583EAF050
:100C9C00A3EBF0ED25E024AFF582E43403F583E417
:100CAC00F0A3F0900000E0FF25E02431F582E4345D
:100CBC0003F583E0FCA3E0FD12176C900000E0FF4D
:100CCC0025E024AFF582E43403F583E0FCA3E0FDDA
:100CDC00C3EC648094804003020D8FEF25E02485E3
:100CEC00F582E43403F583E0FEA3E0C39DFFEE9CA4
:100CFC00FE900000E0FD25E02431F582E43403F59C
:100D0C0083E0FAA3E0D39FEE6480F8EA64809890C5
:100D1C000000E0FF402425E024AFF582E43403F525
:100D2C0083E0FAA3E0FBEF25E02431F582E4340301
:100D3C00F583EA8BF012042B803125E02485F582B3
:100D4C00E43403F583E0FAA3E0FBEF25E02431F56E
:100D5C0082E43403F583EAF0A3EBF0ED25E024AF55
:100D6C00F582E43403F583E4F0A3F0900000E0FF97
:100D7C0025E02431F582E43403F583E0FCA3E0FDA7
:0F0D8C0012176C900000E004F0020BF102130A42
:1014CC00900003EBF0A3EAF0A3E9F0A3ECF0A3ED9A
:0114DC00F01F
:1014DD00E4A3F0A3F0900008F0A3F0900006E0FE66
:1014ED00A3E0FFA3E0FCA3E0FDC39FEC9E4003023D
:1014FD00158DED2415FFE43CFEEF25E0FFEE33FEE8
:10150D00900003E0FBA3E0FAA3E0F98F828E831233
:10151D000457FFAEF07C007D321203F5AC06AD072B
:10152D00900009E025E0FF900008E033FE900003F5
:10153D00A3A3E02FF9EA3EFA1213F7900009E02475
:10154D0015FF900008E03400FEEF25E0FFEE33FEBE
:10155D00900003E0FBA3E0FAA3E0F98F828E8312E3
:10156D000457FFAEF07C007D321203F5121C36904D
:10157D000009E02416F0900008E03400F00214E8B1
:01158D00223B
:10161A0005DC07D007D005DC07D007D005DC07D0EA
:10162A0007D005DC03E803E805DC03E803E805DC8A
:10163A0003E803E805DC03E803E803E803E803E852
:10164A0003E803E803E803E803E803E803E803E838
:10165A0003E803E803E803E803E803E803E803E828
:10166A0003E803E803E803E808FC08FC08FC08FCB4
:10167A0008FC08FC08FC08FC08FC08FC08FC08FC40
:10168A0008FC08FC08FC08FC08FC08FC08FC08FC30
:04169A0008FC03E85D
:101B6400E4F594F593F592F591F596F595F5B2F5BE
:101B7400B1F5B4F5B3F5CAF5C9F5CCF5CBF5E2F595
:0F1B8400E1F580F590F5A075B003F5C0F5C82226
:061DFF00900003EFF0224A
:10006600900322E0602C900323E0B4591DA3E0B472
:100076005308A3E0FF120F368010900324E0B45417
:10008600097B017A037925120D9BE4900322F07F08
:0500960001227F0022A1
:101BC00090021DE0602390021EE0B444031209B2AB
:101BD00090021EE0FF600AC394415005121DFF8071
:0C1BE000EFE490021DF07F01227F002244
:101A63009000027409F0121B64D2C0121C68121D8C
:101A730042121C5012002E121CC9121CEDD2CD7B37
:101A8300FF7A16791A7D167C001214CC121BC01231
:041A9300006680F871
:0411870041044200DD
:101D2200D2AFD2A9438901758CFA758A24D28C224A
:101C5000538E7F5389F0438901E4F58A758C70C2F5
:081C60008DD28CD2A9D2AF2273
:101D3200D2AFD2AB438910758DFA758B24D28E2225
:10002E00538EBF53890FE4F58B758D70C28FD28EB0
:05003E00D2AFD2AB229D
:101C9300D2AF43AF04438E0475D79A75D6A9438E4A
:021CA30010220D
:101CA500D2AF43AF04538EFB75D7CD75D6F8438EAF
:021CB5001022FB
:101CB700D2AF43AF2043D10275D59A75D4A943D18A
:021CC7000822F1
:101CC900D2AF43AF2053D1FD75D5CD75D4F843D1EB
:021CD9000822DF
:101CDB00D2AF43AF4043D12075D39A75D2A943D12C
:021CEB00802255
:101CED00D2AF43AF4053D1DFE4F5D375D24C43D1DE
:021CFD00802243
:03000B00021910C7
:10191000C0E0C0F0C083C08263A201C083C082C0A7
:10192000D075D000C000C001C002C003C004C00513
:10193000C006C0071217C3B2CDD007D006D005D05D
:1019400004D003D002D001D000D0D0D082D08363A5
:0B195000A201D082D083D0F0D0E032A2
:03001B0002195B6C
:10195B00C0E0C0F0C083C08263A201C083C082C05C
:10196B00D075D000C000C001C002C003C004C005C8
:10197B00C006C007121819D007D006D005D004D066
:10198B0003D002D001D000D0D0D082D08363A2018B
:09199B00D082D083D0F0D0E032FC
:0300630002001E7A
:01001E0032AF
:03009B000219A4A3
:1019A400C0E0C0F0C083C08263A201C083C082C013
:1019B400D075D000C000C001C002C003C004C0057F
:1019C400C006C00712169ED007D006D005D004D09A
:1019D40003D002D001D000D0D0D082D08363A20142
:0919E400D082D083D0F0D0E032B3
:0300A30002170938
:10170900C0E0C0F0C083C08263A201C083C082C0B0
:10171900D075D000C000C001C002C003C004C0051C
:10172900C006C007900442E070047F0180027F0078
:10173900900442EFF075D30075D24CEF6003120BA1
:10174900ECD007D006D005D004D003D002D001D008
:1017590000D0D0D082D08363A201D082D083D0F0D0
:03176900D0E0329B
:10118B0041031E0041031F0041021D0041032E00BD
:08119B004103220041032D0075
:1012050090031FE0701BA3E0FF90032DF090031FD8
:10121500E0FE04F0741E2EF582E43402F583EFF04F
:101225002290032EE0FF701B900320E0FE90032D1B
:10123500F0A3E0FD04F074232DF582E43403F58377
:10124500EEF02290032DE064597066EF30E703025B
:101255001309A3E0FFE430E618900320E0640A6078
:1012650003E48026EF90032EF0E4F090032204F0CF
:1012750022900320E0FBB40D1690032EE0FF2423FB
:10128500F582E43403F583E4F0EF90032EF0229029
:10129500032EE0FF7E0074232FF582EE3403F583E1
:1012A500EBF090032EE004F0E0D394094056E4F00F
:1012B500227E00EE20E74D30E61B900320E0640A15
:1012C5006006E490031FF02290031FE0F0E4F09025
:1012D500021D04F022900320E0FDB40D0690031FCB
:1012E500E0F02290031FE0FF7E00741E2FF582EED2
:1012F5003402F583EDF090031FE004F0E0D394FF92
:051305004002E4F022AB
:1009B200900003E4F0A304F0E490002FF0A3F09081
:1009C2000003E0FEA3E0241EF58274023EF583E0FC
:1009D200B42010900004E004F070E4900003E004FE
:1009E200F080DC900003E0FEA3E0241EF582740296
:1009F2003EF583E0FFC3943A5040EF942F403B9082
:100A0200002FE0FEA3E0FF7C007D0A12038E90001F
:100A120003E475F001120441FC741E25F0F58274A2
:100A2200023CF583E07C002FFFEC3ECF24D0CF3494
:100A3200FF90002FF0A3EFF080A9E490021DF09048
:100A4200002F74FFF5F012044145F07003020BEB26
:100A520090021DE06003020BEB900031F0A3F0FB6B
:100A6200FDEDFF3395E0FEEF25E0FFEE33FE74056A
:100A72002FF58274003EF583E4F0A3F00DEDB4157A
:100A8200E0C3EB648094954003020B51900003E4B1
:100A920075F001120441FE741E25F0F58274023EC7
:100AA200F583E0B420E6900003E0FEA3E0241EF507
:100AB2008274023EF583E0FFC3943A506CEF942FA8
:100AC2004067EBFF3395E0FEEF25E0FFEE33FE7467
:100AD200052FF58274003EF583E0FEA3E0FF7C0063
:100AE2007D0A12038E900003E475F001120441FCAA
:100AF200741E25F0F58274023CF583E07C002FFF22
:100B0200EC3ECF24D0FDEF34FFFCEBFF3395E0FE4B
:100B1200EF25E0FFEE33FE74052FF58274003EF5FB
:100B220083ECF0A3EDF0020AA8900003E0FEA3E03C
:100B3200241DF58274023EF583E0FFC3943A40031C
:100B4200020A83EF942F5003020A830B020A839056
:100B52000003E0FEA3E0241EF58274023EF583E06A
:100B6200B42010900004E004F070E4900003E0046C
:100B7200F080DC900003E0FEA3E0241EF582740204
:100B82003EF583E0FFC3943A5040EF942F403B90F0
:100B92000031E0FEA3E0FF7C007D0A12038E90008C
:100BA20003E475F001120441FC741E25F0F5827411
:100BB200023CF583E07C002FFFEC3ECF24D0CF3403
:100BC200FF900031F0A3EFF080A9900031E0FEA386
:100BD200E0FF7C007D321203F5AC06AD077B017AA3
:090BE2000079051213F7020A4123
:010BEB0022E7
:101C680075B003759850438E01438E0475D7D075AF
:061C7800D6FF438E10228E
:101D4200759A50438E0475D7D075D6FF438E1022F4
:030023000219EDD2
:1019ED00C0E0C083C08263A201C083C082C0D07535
:1019FD00D008309811C29890031E7401F090032006
:101A0D00E599F0121205309907C29990032FE4F071
:101A1D00D0D0D082D08363A201D082D083D0E032E7
:03004300021A2D71
:101A2D00C0E0C083C08263A201C083C082E59A304A
:101A3D00E009539AFE900321E59BF0E59A30E10809
:101A4D00539AFD900330E4F0D082D08363A201D08D
:061A5D0082D083D0E032CC
:101D520090032FE070FAEF90032F7401F0F59922AF
:061E0500900443EFF022FF
:101ACB00900438EBF0A3EAF0A3E9F0900438E0FBC4
:101ADB00A3E0FAA3E0F91203636017900438A3E4C0
:101AEB0075F001120441A9F0FA120363FF1200030F
:031AFB0080D9226D
:101AFE0090043BEBF0A3EAF0A3E9F090043BE0FB8B
:101B0E00A3E0FAA3E0F9120363601790043BA3E489
:101B1E0075F001120441A9F0FA120363FF121DBC05
:031B2E0080D92239
:080003008F993099FDC299228A
:0E1DBC00900330E060FA8F9BE4900330F02239
:0E1D620000007FD37E1E7D0BDDFEDEFCDFFA6F
:011D70002250
:0E1D710000007F557E0C7D9BDDFEDEFCDFFA60
:011D7F002241
:0E1D800000007F2B7E067DCBDDFEDEFCDFFA51
:011D8E002232
:0E1D8F0000007F1A7E377DABDDFEDEFCDFFA42
:011D9D002223
:0C000E007F0A7E1F7D93DDFEDEFCDFFA22
:01001A0022C3
:0E1D9E0000007F0D7E9C7D53DDFEDEFCDFFA33
:011DAC002214
:0E1DAD0000007F097E687D8BDDFEDEFCDFFA24
:011DBB002205
:101C3600AE071FEED39400401000007E057D347C75
:091C4600C3DCFEDDFCDEFA80E7E0
:011C4F002272
:101C7E0000010203040506071408090A0B0C0D0ED9
:051C8E000F13121110FC
:1011A3005803DFF5F5F5F5F5F5F5F5F5F5F5F5F591
:1011B300F5F5F5F5F5F5F5F5C6C6A65803F733339A
:1011C30033333333333333333333333333333333EC
:1011D30033333366660041040F00410410004104B9
:1011E30011004203D900004203DB00004203DD008B
:0111F30000FB
:1017C30090040FE0FFB4080EE4F5809003F4E0F515
:1017D3008C90040C8029EF70057580018006E580EC
:1017E30025E0F58090040FE0FF24DFF582E4340365
:1017F300F583E0F58C74F72FF582E43403F583E089
:10180300F58A90040FE02401FFE433FE7C007D0998
:061813001203A0EDF0221B
:10181900900410E0FFB4080EE4F5A09003F5E0F59C
:101829008D90040D8029EF700575A0018006E5A053
:1018390025E0F5A0900410E0FF24E7F582E43403E5
:10184900F583E0F58D74FF2FF582E43403F583E029
:10185900F58B900410E02401FFE433FE7C007D0940
:061869001203A0EDF022C5
:10169E00900411E0FFB4050E53C0839003F6E0F5FD
:1016AE00D490040E803E900410E0700AE5C054837E
:1016BE004404F5C080137404A807088002C333D80D
:1016CE00FCFFE5C054834FF5C0900411E0FF24EFFA
:1016DE00F582E43403F583E0F5D474072FF582E444
:1016EE003404F583E0F5D5900411E02401FFE433D2
:0B16FE00FE7C007D061203A0EDF02230
:10176C00900001EFF0E41202A97BFA7AED79EB78A4
:10177C003F12019EA804A905AA06AB07E4FFFE7D53
:10178C00807C471200A91202E2AC06AD0790000162
:10179C00E0901C7E93900001F0ECFFE0FB24DFF561
:1017AC0082E43403F583EFF0EDFF74F72BF582E45C
:0717BC003403F583EFF02276
:10130A009003D97470F0A3E4F0FD74DF2DF582E444
:10131A003403F583E0FE74F72DF582E43403F58394
:10132A00E0FBEBFFC3E49FFFE49EFE9003DAE02FAD
:10133A00F09003D9E03EF00DEDB408CE9003D9E069
:10134A00FCA3E0FDEC9003F4F090040CEDF09003A4
:10135A00DB7470F0A3E4F07D0874DF2DF582E434C9
:10136A0003F583E0FE74F72DF582E43403F583E098
:10137A00FBEBFFC3E49FFFE49EFE9003DCE02FF04B
:10138A009003DBE03EF00DEDB410CE9003DBE0FC01
:10139A00A3E0FDEC9003F5F090040DEDF09003DD71
:1013AA007470F0A3E4F07D1074DF2DF582E4340349
:1013BA00F583E0FE74F72DF582E43403F583E0FB50
:1013CA00EBFFC3E49FFFE49EFE9003DEE02FF09064
:1013DA0003DDE03EF00DEDB415CE9003DDE0FCA395
:0C13EA00E0FDEC9003F6F090040EEDF036
:0113F60022D4
:10067400CED2CFD6D4DAB5C4C9F9D2F4CAC7D5E23A
:10068400D1F9B5C400C9F9D2F4D2D1BBD6B8B4C437
:10069400ACC8CFC9E8D6C300D3EFCBD9D2D1B5F714
:1006A400B5BD00BCB600D3EFB5F7D2D1B5F7B5BD33
:1006B40000D2F4C1BFD2D1B5F7B5BD00FD0001022F
:1006C400FD000103FD000104FD000121FD0001887E
:1006D4005B73305D00005B73315D00005B73325D02
:1006E40000005B73335D00005B73345D00005B737B
:1006F400355D00005B73365D00005B73375D0000A1
:100704005B73385D00005B73395D00005B733130EF
:100714005D005B74305D00005B74315D00005B74F0
:10072400325D00005B74335D00005B74345D000077
:100734005B74355D00005B74365D00005B74375D8F
:1007440000005B74385D00005B74395D00005B740D
:1007540031305D005B76305D00005B76315D00001A
:100764005B76325D00005B76335D00005B76345D62
:1007740000005B76355D00005B76365D00005B76DD
:10078400375D00005B76385D00005B76395D000004
:100794005B7631305D005B6D335D00005B6D353140
:1007A4005D005B6D35325D005B6D35335D005B6D07
:1007B40035345D005B6D35355D00010101010100DB
:1007C4000000000000000000000000000000000025
:1007D4000000000000000000000000000000000015
:1007E4000000000000000000000000000000000005
:1007F40000000000000000000000000000000000F5
:1008040000000000000000000000000000000000E4
:1008140000000000000000000000000000000000D4
:1008240000000000000000000000000000000000C4
:1008340000000000000000000000000000000000B4
:1008440000000000000000000000000000000000A4
:100854000000000000000000000000000000000094
:100864000000000000000000000000000000000084
:100874000000000000000000000000000000000074
:100884000000000000000000000000000000000064
:100894000000000000000000000000000000000054
:1008A4000000000000000000000000000000000044
:1008B4000000000000000000000000000000000034
:1008C4000000000000000000000000000000000024
:1008D4000000000000000000000000000000000014
:1008E4000000000000000000000000000000000004
:1008F40000000000000000000000000000000000F4
:1009040000000000000000000000000000000000E3
:1009140000000000000000000000000000000000D3
:1009240000000000000000000000000000000000C3
:1009340000000000000000000000000000000000B3
:1009440000000000000000000000000000000000A3
:100954000000000000000000000000000000000093
:100964000000000000000000000000000000000083
:100974000000000000000000000000000000000073
:100984000000000000000000000000000000000063
:100994000000000000000000000000000000000053
:0E09A400000000000000000000000000000045
:1011F40041043505410436054104370841043401EE
:091A97001206577B017A00792048
:0B1AA00090021AEBF0A3EAF0A3E9F0BB
:101AAB00E4FFFE90021AE0FBA3E475F0011204417F
:0F1ABB00A9F0FA12036360070FBF00010E80E469
:011ACA0022F9
:10186F0090042EEBF0A3EAF0A3E9F0900431E0FB33
:10187F00A3E0FAA3E0F91203636028900431A3E414
:10188F0075F001120441A9F0FA120363FF90042EC0
:10189F00E0FBA3E475F001120441A9F0FAEF120383
:1018AF007C80C890042EE0FBA3E0FAA3E0F9E402E9
:0218BF00037CA8
:0B0D9B0090001DEBF0A3EAF0A3E9F0CC
:100DA60078207C007D017BFF7A0779BE7E017FF487
:100DB600120569900218E4F0A37405F0900435E07A
:100DC60075F006A424D4F9740635F0FA7BFFC00149
:100DD60074202405F9E43400A801FC7D01D0011239
:100DE6001A97900218EEF0A3EFF0900436E075F033
:100DF60006A42416F9740735F0FA7BFFC0019002A9
:100E060018E0FEA3E02420F974003EA801FC7D0151
:100E1600D001121A97900218EEF0A3EFF090043763
:100E2600E075F006A42458F9740735F0FA7BFFC084
:100E360001900218E0FEA3E02420F974003EA80108
:100E4600FC7D01D001121A97900218EEF0A3EFF084
:100E5600900434E075F006A4249AF9740735F0FA84
:100E66007BFFC001900218E0FEA3E02420F9740085
:100E76003EA801FC7D01D001121A97900218EEF0EF
:100E8600A3EFF090001DE0FBA3E0FAA3E0F9121A2D
:100E9600A0900214EEF0A3EFF0900219E02FFF905D
:100EA6000218E03ECF24FDCF34FF900214F0A3EFEA
:100EB600F090002074FDF0900214E0FCA3E0FDEC3D
:100EC600900021F0A3EDF0A37401F0A3F0900218B6
:100ED600E0FEA3E02420F974003EA801FC7D019009
:100EE600001DE0FBA3E0FAA3E0F9120657E4900226
:100EF60016F0A3F0900215E02403FF900214E034EC
:100F060000FE900216E0FCA3E0FDC39FEC9E501F7E
:100F160074202DF58274003CF583E0FF12000390E7
:0F0F26000217E004F07006900216E004F080C598
:010F35002299
:050F3600900003EFF044
:100F3B0014B408004003020FCF900F5275F003A4B6
:100F4B00C58325F0C58373020F6A020F6F020F74FE
:100F5B00020F79020F7E020F86020F9B020FB690D3
:100F6B000435801290043580159004368008900467
:100F7B0036800B900437E024018006900437E02480
:100F8B000AFFE433FE7C007D0B1203A0EDF08034EE
:100F9B00900434E02401FFE433FE7C007D06120351
:100FAB00A0EDF07BFF7A06797480169004357405FA
:100FBB00F0A3F0A3F09004347401F07BFF7A067970
:100FCB0089120D9B900003E0FF64016005EF640242
:100FDB00702A900435E0FFB40A0A9000187431F0BF
:100FEB00A3148006EF2430900018F0E4A3F07804EB
:100FFB007C007D017BFF7A06799C8071900003E079
:10100B00FF64036005EF6404702A900436E0FFB4BC
:10101B000A0A9000187431F0A3148006EF24309064
:10102B000018F0E4A3F078047C007D017BFF7A06C6
:10103B0079AA8039900003E0FF64056008EF64062D
:10104B0060030210CE900437E0FFB40A0A90001838
:10105B007431F0A3148006EF2430900018F0E4A351
:10106B00F078047C007D017BFF7A0679B512065778
:10107B007B017A007904121AA090001BEEF0A3EF0B
:10108B00F02404F974003EA801FC7D017B017A0079
:10109B0079181206577B017A007904121AA0900076
:1010AB001BEEF0A3EFF02404F974003EA801FC7DC5
:1010BB00017BFF7A0679A71206577B017A00790428
:0310CB00120D9B68
:0110CE0022FF
:01001F0022BE
:03002B00020020B0
:0100200032AD
:061DCA00EE25E0FED2B59B
:071DD0000000007F0ADFFEA6
:011DD70022E9
:101D1100D2B4D2B5121DD0C2B4121DD0C2B5021DAB
:011D2100D0F1
:0C1DF300C2B4D2B5121DD0D2B4021DD073
:0E1DD800A20092B4D2B5121DD0C2B5021DD029
:0D1DE600D2B5121DD0A2B4C2B5121DD0227C
:071BEC00AF04121BF3AF036D
:021BF300AE073B
:101BF500E4FDEEC4131313540124FF92B4121DCA5D
:0D1C0500C2B5121DD00DEDB408E8021DE6B9
:10004600E4FED2B4FD121DCAA2B4E4334EFEC2B51C
:0A005600121DD00DEDB408EDAF0649
:01006000227D
:101CFF00AE07AC05121D11AF06121BF3121BEC023F
:021D0F001DF3C2
:041C1200AC07AB056B
:101C1600121D11121BEC121D11EC4401FF121BF3D5
:0F1C2600120046AE07D200121DD8121DF3AF06F2
:011C3500228C
:101B9300E4FB7D6B7FD0121CFF7B077D197FD01286
:101BA3001CFF7B067D1A7FD0121CFF7B187D1B7FD9
:0D1BB300D0121CFF7B017D1C7FD0021CFFA7
:061B3100900440EFF0FDFE
:101B37007FD0121C12900441EFF0900440E004FDA6
:101B47007FD0121C12AD07900441E0FF3395E0EF00
:0C1B5700FEED3395E0FCE42DFFEE3CFEBB
:011B6300225F
:1018C1007F3B121B31900424EEF0A3EFF07F3D1219
:1018D1001B31900426EEF0A3EFF07F3F121B3190F5
:1018E1000428EEF0A3EFF07F43121B3190042AEE9F
:1018F100F0A3EFF07F45121B3190042CEEF0A3EF23
:0F190100F07F47121B31900420EEF0A3EFF0228D
:0100210022BC
:1000A60002034EE86480F8E933E83360110460F037
:1000B600ED33EC337009E8FCE9FDEAFEEBFF2204C0
:1000C60060DED3EB9FEA9EE99DE8C2E78CF0C2F7BB
:1000D60095F0400CE8CCF8E9CDF9EACEFAEBCFFB87
:1000E60012031985D0F05804700320D5B3E80470C4
:1000F600075002B2D502035892D5EC0460F7E4CC5F
:10010600C0E0C398F8603B94186008400DD0E0FB4F
:10011600020330E4FBFAC9FC8028E830E406E4C9AF
:10012600FBE4CAFCE830E305E4C9CACBFCE85407A3
:100136006010F8C3E913F9EA13FAEB13FBEC13FCAE
:10014600D8F130F52FC3E49CFCEF9BFFEE9AFEED51
:1001560099FDD0E0FBEF4E4D4C701222DB030203FB
:1001660055EC2CFCEF33FFEE33FEED33FDED30E7BF
:10017600EB020330EF2BFFEE3AFEED39FDD0E0FB4C
:1001860050130BBB0003020358ED13FDEE13FEEFF5
:0801960013FFEC13FC0203301F
:10019E00EC4D6011E8497017ED33EC3304600DE45B
:1001AE00FCFFFEFD22E933E8330470F802034E1221
:1001BE00031958046009E4CC248150062850090222
:1001CE000358284003020355C0E0EB4A7044B9803F
:1001DE0006D0E0FB020344EF4E701CBD8008EBFF1F
:1001EE00EAFEE9FD80EBE98DF0A4FEE5F002028760
:1001FE00E9CDF9EAFEEBFFEF89F0A4FCE5F0CE893C
:10020E00F0A42EFFE435F0CD89F0A42DFEE435F0F8
:10021E008067EF4E7005BD80D780C3EF8BF0A4AC26
:10022E00F0EE8BF0A42CFCE435F0F8EF8AF0A42C61
:10023E00E5F038FCE433CB8DF0A42CFCE5F03BF874
:10024E00EE8AF0A42CFCE5F038F8E433CF89F0A464
:10025E002CFCE5F038CF3400CE89F0A42FFFE5F06A
:10026E003EFEE433C98DF0A42EFEE5F039CD8AF0C2
:10027E00A42FFFE5F03EFEE43DFD33D0E0FB50073A
:10028E000BBB000F020358EC2CFCEF33FFEE33FEDA
:06029E00ED33FD02033008
:1002A40075F020800E75F010800575F0087D007ED5
:1002B400007F003392D530D50312048FEC33401005
:1002C400EF33FFEE33FEED33FDEC33FCD5F0ED22DE
:0E02D400E5F0247EA2D513CC92E7CDCEFF221A
:1002E200EDD2E7CD33EC3392D524814006E4FFFE14
:1002F200FDFC22FCE4CFCECDCC24E0501174FF8073
:10030200EDC3CC13CCCD13CDCE13CECF13CF04700F
:07031200F030D5DE02048F7C
:10031900E9D2E7C933E833F892D5EDD2E7CD33EC2A
:0703290033FC5002B2D522A3
:10033000EC30E7100FBF000C0EBE00080DBD00042E
:100340000BEB6014A2D5EB13FCED92E7FD2274FFDA
:10035000FCFDFEFF22E480F8A2D574FF13FC7D8033
:03036000E480EF47
:0300000002158E58
:0C158E00787FE4F6D8FD7581200215D5A9
:10036300BB010689828A83E0225002E722BBFE0298
:09037300E32289828A83E49322CB
:10037C00BB010689828A83F0225002F722BBFE0160
:02038C00F3225A
:10038E00EF8DF0A4A8F0CF8CF0A428CE8DF0A42E83
:02039E00FE223D
:1003A000BC000BBE0029EF8DF084FFADF022E4CC41
:1003B000F875F008EF2FFFEE33FEEC33FCEE9DEC0A
:1003C000984005FCEE9DFE0FD5F0E9E4CEFD22ED50
:1003D000F8F5F0EE8420D21CFEADF075F008EF2F9A
:1003E000FFED33FD4007985006D5F0F222C398FD8B
:0503F0000FD5F0EA2228
:1003F500C2D5EC30E709B2D5E4C39DFDE49CFCEE23
:1004050030E715B2D5E4C39FFFE49EFE1203A0C3F7
:10041500E49DFDE49CFC80031203A030D507C3E4F2
:060425009FFFE49EFE2291
:10042B00C5F0F8A3E028F0C5F0F8E582158270025C
:06043B001583E038F022F9
:10044100A3F8E0C5F025F0F0E5821582700215836E
:06045100E0C838F0E822CB
:10045700BB0110E58229F582E5833AF583E0F5F0E3
:10046700A3E0225009E92582F886F008E622BBFEC0
:100477000AE92582F8E2F5F008E222E5832AF58306
:08048700E993F5F0A3E99322CB
:0E048F00C3E49FFFE49EFEE49DFDE49CFC227E
:10049D00E709F608DFFA8046E709F208DFFA803E41
:1004AD0088828C83E709F0A3DFFA8032E309F6082E
:1004BD00DFFA8076E309F208DFFA806E88828C839A
:1004CD00E309F0A3DFFA806289828A83E0A3F6084C
:1004DD00DFFA805689828A83E0A3F208DFFA804A28
:1004ED0080D280FA80C680D4806580F28031801001
:1004FD0080A680EA809A80A880DA80E280CA803166
:10050D0089828A8363A20188828C8363A201E4932A
:10051D00A363A201F0A363A201DFF3DEF1800B89D7
:10052D00828A83E493A3F608DFF9ECFAA9F0EDFBD8
:10053D002289828A8363A20188828C8363A201E06F
:10054D00A363A201F0A363A201DFF4DEF280DB89D5
:10055D00828A83E493A3F208DFF980CE88F0EF60FE
:10056D00010E4E60C588F0ED2402B4040050BBF5B9
:10057D0082EB2402B4040050B1232345822390045E
:02058D00ED730C
:10058F00E709F60870FA8046E709F20870FA803E2C
:10059F0088828C83E709F0A370FA807CE309F60860
:1005AF0070FA8074E309F20870FA806C88828C8389
:1005BF00E309F0A370FA806089828A83E0A3F608CA
:1005CF0070FA805489828A83E0A3F20870FA804817
:1005DF0080D280FA80C680D4806180F2802F801014
:1005EF0080A680EA809A80A880DA80E280CA802F75
:1005FF0089828A8363A20188828C8363A201E49338
:10060F00A363A201F0A363A20170F3800B89828A16
:10061F0083E493A3F60870F9ECFAA9F0EDFB2289B5
:10062F00828A8363A20188828C8363A201E0A36321
:10063F00A201F0A363A20170F480DD89828A83E4B2
:10064F0093A3F20870F980D088F0ED2402B404006F
:10065F0050C6F582EB2402B4040050BC232345821C
:05066F00239005DF737C
:10159A00021A63E493A3F8E493A34003F68001F2EA
:1015AA0008DFF48029E493A3F85407240CC8C33352
:1015BA00C4540F4420C8834004F456800146F6DF21
:1015CA00E4800B01020408102040809010CFE47ED2
:1015DA00019360BCA3FF543F30E509541FFEE49316
:1015EA00A360010ECF54C025E060A840B8E493A3DD
:1015FA00FAE493A3F8E493A3C8C582C8CAC583CA08
:10160A00F0A3C8C582C8CAC583CADFE9DEE780BEBF
:0112040000E9
:00000001FF
